:020000006E2967
:06000600000000000800EC
:0E000C00213083120313FD00FD0B0A280800AB
:10001A000F3083120313FC004730FD00FD0B132839
:0A002A00FC0B132800000000080082
:1000340083120313E71B2028861121288615671BCA
:100044002528061126280615E71A2A2886102B28A3
:100054008614671A2F280610302806145B183428D3
:10006400061635280612861603208612E7193C2840
:1000740086113D2886156719412806114228061560
:10008400E718462886104728861467184B28061058
:100094004C2806145B18502806165128061286169A
:1000A400032086125B1C58280D20592806200800BE
:1000B400831203135B106608E7001A205B14080020
:0E00C400831203135D088A005C0882000800A6
:1000D2008316031398186F28000069288312620898
:0400E2009900080079
:1000E6008528803083120313E2009828C030E2008E
:1000F60098289430E2009828D430E200982880307E
:10010600E2009828831203136208013A031974283F
:100116006208023A031979286208033A03197C280F
:100126006208043A03197F2882286303F0006208F4
:10013600F0077008E2007008E7001A205B10E5017E
:1001460065086407840000080319B1286508640778
:1001560084000008E6005A20E50AA3285B1408007C
:10016600831603138801831208140130E20001305C
:0A017600E3003A30E40073200800B3
:0801800083120313881008002C
:1001880083160313861206120610861006118611AE
:1001980083128612061286110611861006100D208B
:1001A8000D200D20861406148616032086120D20B5
:1001B8008616032086120D208616032086120D202F
:1001C80006108616032086120D2086160320861236
:1001D800861086158616032086120D2086110614B1
:1001E80086160320861206108616032086120D2016
:1001F80086160320861206148616032086120D2002
:10020800061086160320861286150615861406140F
:0C0218008616032086120D205B140800DF
:0C022400831603138801831208150800DC
:0C02300083160313880183128814080051
:10023C0083120313E1015F0884000008E0006008EA
:10024C00003A031933296008E2006920E10A6108C9
:0C025C005F0784000008E000252908006E
:1002680062208A110A128000840ADC0A0319DD0A56
:08027800F003031D3429080006
:0E028000013083120313E7001A200810080053
:02028E00080066
:0802900083120313081108009A
:0E0298000030831203138C1A0130F0000800AE
:1002A60083160313981690308312980083168717C7
:1002B600071383128C1E62291A08F0005C290800B5
:1002C600831203131A08F100981C6B2918121816CA
:0602D6007108F0000800B1
:1002DC000E2283160313880183128801C420013077
:1002EC00E7001A200C30E7001A20333083169900EF
:1002FC00181553210230FB000430FC00BA30FD000D
:10030C00FD0B8629FC0B8629FB0B862900004C2152
:10031C007008013A031DCC2963217008DE007008B7
:10032C00613A031D9E2918215230DF001E21CC2971
:10033C005E08623A031DA729C0204830DF001E2149
:10034C00CC295E08633A031DB029B3202730DF00A7
:10035C001E21CC295E08643A031DB9292030DF0028
:10036C001E214021CC295E08653A031DC2292D307F
:10037C00DF001E211221CC295E08663A031DCB2911
:10038C003330DF001E214821CC2947218D29CD296E
:10041C00203084003B3083120313F000D330DC0017
:08042C000130DD00342108005D
:0E03A6004C34433444344F344634463400342F
:0C03B4004C34433444344F344E34003495
:0C03C000463461346E344F344E34003447
:0E03CC00463461346E344F34463446340034C7
:1003DA0054346834693473342034693473342034BF
:0C03EA004334533435343034783400345C
:1003F6004C34693467346834743420344F344634AA
:040406004634003444
:10040A004C34693467346834743420346F346E344D
:02041A000034AC
:02400E004A2F37
:00000001FF
